{
  "contractName": "Marketplace",
  "abi": [
    {
      "inputs": [],
      "stateMutability": "nonpayable",
      "type": "constructor"
    },
    {
      "anonymous": false,
      "inputs": [
        {
          "indexed": true,
          "internalType": "address",
          "name": "owner",
          "type": "address"
        },
        {
          "indexed": true,
          "internalType": "address",
          "name": "spender",
          "type": "address"
        },
        {
          "indexed": false,
          "internalType": "uint256",
          "name": "value",
          "type": "uint256"
        }
      ],
      "name": "Approval",
      "type": "event"
    },
    {
      "anonymous": false,
      "inputs": [
        {
          "indexed": false,
          "internalType": "uint256",
          "name": "id",
          "type": "uint256"
        },
        {
          "indexed": false,
          "internalType": "string",
          "name": "name",
          "type": "string"
        },
        {
          "indexed": false,
          "internalType": "uint256",
          "name": "price",
          "type": "uint256"
        },
        {
          "indexed": false,
          "internalType": "address payable",
          "name": "owner",
          "type": "address"
        },
        {
          "indexed": false,
          "internalType": "bool",
          "name": "purchased",
          "type": "bool"
        }
      ],
      "name": "CreatedProduct",
      "type": "event"
    },
    {
      "anonymous": false,
      "inputs": [
        {
          "indexed": false,
          "internalType": "uint256",
          "name": "id",
          "type": "uint256"
        },
        {
          "indexed": false,
          "internalType": "string",
          "name": "name",
          "type": "string"
        },
        {
          "indexed": false,
          "internalType": "uint256",
          "name": "price",
          "type": "uint256"
        },
        {
          "indexed": false,
          "internalType": "address payable",
          "name": "owner",
          "type": "address"
        },
        {
          "indexed": false,
          "internalType": "bool",
          "name": "purchased",
          "type": "bool"
        }
      ],
      "name": "PurchasedProduct",
      "type": "event"
    },
    {
      "anonymous": false,
      "inputs": [
        {
          "indexed": true,
          "internalType": "address",
          "name": "from",
          "type": "address"
        },
        {
          "indexed": true,
          "internalType": "address",
          "name": "to",
          "type": "address"
        },
        {
          "indexed": false,
          "internalType": "uint256",
          "name": "value",
          "type": "uint256"
        }
      ],
      "name": "Transfer",
      "type": "event"
    },
    {
      "inputs": [
        {
          "internalType": "address",
          "name": "owner",
          "type": "address"
        },
        {
          "internalType": "address",
          "name": "spender",
          "type": "address"
        }
      ],
      "name": "allowance",
      "outputs": [
        {
          "internalType": "uint256",
          "name": "",
          "type": "uint256"
        }
      ],
      "stateMutability": "view",
      "type": "function",
      "constant": true
    },
    {
      "inputs": [
        {
          "internalType": "address",
          "name": "spender",
          "type": "address"
        },
        {
          "internalType": "uint256",
          "name": "amount",
          "type": "uint256"
        }
      ],
      "name": "approve",
      "outputs": [
        {
          "internalType": "bool",
          "name": "",
          "type": "bool"
        }
      ],
      "stateMutability": "nonpayable",
      "type": "function"
    },
    {
      "inputs": [
        {
          "internalType": "address",
          "name": "account",
          "type": "address"
        }
      ],
      "name": "balanceOf",
      "outputs": [
        {
          "internalType": "uint256",
          "name": "",
          "type": "uint256"
        }
      ],
      "stateMutability": "view",
      "type": "function",
      "constant": true
    },
    {
      "inputs": [],
      "name": "decimals",
      "outputs": [
        {
          "internalType": "uint8",
          "name": "",
          "type": "uint8"
        }
      ],
      "stateMutability": "view",
      "type": "function",
      "constant": true
    },
    {
      "inputs": [
        {
          "internalType": "address",
          "name": "spender",
          "type": "address"
        },
        {
          "internalType": "uint256",
          "name": "subtractedValue",
          "type": "uint256"
        }
      ],
      "name": "decreaseAllowance",
      "outputs": [
        {
          "internalType": "bool",
          "name": "",
          "type": "bool"
        }
      ],
      "stateMutability": "nonpayable",
      "type": "function"
    },
    {
      "inputs": [
        {
          "internalType": "address",
          "name": "spender",
          "type": "address"
        },
        {
          "internalType": "uint256",
          "name": "addedValue",
          "type": "uint256"
        }
      ],
      "name": "increaseAllowance",
      "outputs": [
        {
          "internalType": "bool",
          "name": "",
          "type": "bool"
        }
      ],
      "stateMutability": "nonpayable",
      "type": "function"
    },
    {
      "inputs": [],
      "name": "name",
      "outputs": [
        {
          "internalType": "string",
          "name": "",
          "type": "string"
        }
      ],
      "stateMutability": "view",
      "type": "function",
      "constant": true
    },
    {
      "inputs": [],
      "name": "productCount",
      "outputs": [
        {
          "internalType": "uint256",
          "name": "",
          "type": "uint256"
        }
      ],
      "stateMutability": "view",
      "type": "function",
      "constant": true
    },
    {
      "inputs": [
        {
          "internalType": "uint256",
          "name": "",
          "type": "uint256"
        }
      ],
      "name": "products",
      "outputs": [
        {
          "internalType": "uint256",
          "name": "id",
          "type": "uint256"
        },
        {
          "internalType": "string",
          "name": "name",
          "type": "string"
        },
        {
          "internalType": "uint256",
          "name": "price",
          "type": "uint256"
        },
        {
          "internalType": "address payable",
          "name": "owner",
          "type": "address"
        },
        {
          "internalType": "bool",
          "name": "purchased",
          "type": "bool"
        }
      ],
      "stateMutability": "view",
      "type": "function",
      "constant": true
    },
    {
      "inputs": [],
      "name": "symbol",
      "outputs": [
        {
          "internalType": "string",
          "name": "",
          "type": "string"
        }
      ],
      "stateMutability": "view",
      "type": "function",
      "constant": true
    },
    {
      "inputs": [],
      "name": "totalSupply",
      "outputs": [
        {
          "internalType": "uint256",
          "name": "",
          "type": "uint256"
        }
      ],
      "stateMutability": "view",
      "type": "function",
      "constant": true
    },
    {
      "inputs": [
        {
          "internalType": "address",
          "name": "to",
          "type": "address"
        },
        {
          "internalType": "uint256",
          "name": "amount",
          "type": "uint256"
        }
      ],
      "name": "transfer",
      "outputs": [
        {
          "internalType": "bool",
          "name": "",
          "type": "bool"
        }
      ],
      "stateMutability": "nonpayable",
      "type": "function"
    },
    {
      "inputs": [
        {
          "internalType": "address",
          "name": "from",
          "type": "address"
        },
        {
          "internalType": "address",
          "name": "to",
          "type": "address"
        },
        {
          "internalType": "uint256",
          "name": "amount",
          "type": "uint256"
        }
      ],
      "name": "transferFrom",
      "outputs": [
        {
          "internalType": "bool",
          "name": "",
          "type": "bool"
        }
      ],
      "stateMutability": "nonpayable",
      "type": "function"
    },
    {
      "inputs": [
        {
          "internalType": "string",
          "name": "prod_name",
          "type": "string"
        },
        {
          "internalType": "uint256",
          "name": "prod_price",
          "type": "uint256"
        }
      ],
      "name": "Method_Product_Creation",
      "outputs": [],
      "stateMutability": "nonpayable",
      "type": "function"
    },
    {
      "inputs": [
        {
          "internalType": "uint256",
          "name": "p_id",
          "type": "uint256"
        }
      ],
      "name": "Method_Product_Purchase",
      "outputs": [],
      "stateMutability": "payable",
      "type": "function",
      "payable": true
    }
  ],
  "bytecode": "0x608060405260006005553480156200001657600080fd5b506040518060400160405280600881526020017f52696e6e6567616e0000000000000000000000000000000000000000000000008152506040518060400160405280600381526020017f52696e000000000000000000000000000000000000000000000000000000000081525081600390805190602001906200009b9291906200026e565b508060049080519060200190620000b49291906200026e565b505050620000e673baf8395ce964b37f0a2ab9eca162287f985398e2683635c9adc5dea00000620000ec60201b60201c565b620004c9565b600073ffffffffffffffffffffffffffffffffffffffff168273ffffffffffffffffffffffffffffffffffffffff16036200015e576040517f08c379a000000000000000000000000000000000000000000000000000000000815260040162000155906200037f565b60405180910390fd5b62000172600083836200026460201b60201c565b8060026000828254620001869190620003da565b92505081905550806000808473ffffffffffffffffffffffffffffffffffffffff1673ffffffffffffffffffffffffffffffffffffffff1681526020019081526020016000206000828254620001dd9190620003da565b925050819055508173ffffffffffffffffffffffffffffffffffffffff16600073ffffffffffffffffffffffffffffffffffffffff167fddf252ad1be2c89b69c2b068fc378daa952ba7f163c4a11628f55a4df523b3ef8360405162000244919062000448565b60405180910390a362000260600083836200026960201b60201c565b5050565b505050565b505050565b8280546200027c9062000494565b90600052602060002090601f016020900481019282620002a05760008555620002ec565b82601f10620002bb57805160ff1916838001178555620002ec565b82800160010185558215620002ec579182015b82811115620002eb578251825591602001919060010190620002ce565b5b509050620002fb9190620002ff565b5090565b5b808211156200031a57600081600090555060010162000300565b5090565b600082825260208201905092915050565b7f45524332303a206d696e7420746f20746865207a65726f206164647265737300600082015250565b600062000367601f836200031e565b915062000374826200032f565b602082019050919050565b600060208201905081810360008301526200039a8162000358565b9050919050565b6000819050919050565b7f4e487b7100000000000000000000000000000000000000000000000000000000600052601160045260246000fd5b6000620003e782620003a1565b9150620003f483620003a1565b9250827fffffffffffffffffffffffffffffffffffffffffffffffffffffffffffffffff038211156200042c576200042b620003ab565b5b828201905092915050565b6200044281620003a1565b82525050565b60006020820190506200045f600083018462000437565b92915050565b7f4e487b7100000000000000000000000000000000000000000000000000000000600052602260045260246000fd5b60006002820490506001821680620004ad57607f821691505b602082108103620004c357620004c262000465565b5b50919050565b611c4180620004d96000396000f3fe6080604052600436106100e85760003560e01c806370a082311161008a578063a457c2d711610059578063a457c2d714610313578063a9059cbb14610350578063dd62ed3e1461038d578063e0f6ef87146103ca576100e8565b806370a082311461024e5780637acc0b201461028b57806395d89b41146102cc57806398ee19d3146102f7576100e8565b80631befd194116100c65780631befd1941461018057806323b872dd146101a9578063313ce567146101e65780633950935114610211576100e8565b806306fdde03146100ed578063095ea7b31461011857806318160ddd14610155575b600080fd5b3480156100f957600080fd5b506101026103f5565b60405161010f919061126c565b60405180910390f35b34801561012457600080fd5b5061013f600480360381019061013a9190611336565b610487565b60405161014c9190611391565b60405180910390f35b34801561016157600080fd5b5061016a6104aa565b60405161017791906113bb565b60405180910390f35b34801561018c57600080fd5b506101a760048036038101906101a2919061150b565b6104b4565b005b3480156101b557600080fd5b506101d060048036038101906101cb9190611567565b61061e565b6040516101dd9190611391565b60405180910390f35b3480156101f257600080fd5b506101fb61064d565b60405161020891906115d6565b60405180910390f35b34801561021d57600080fd5b5061023860048036038101906102339190611336565b610656565b6040516102459190611391565b60405180910390f35b34801561025a57600080fd5b50610275600480360381019061027091906115f1565b61068d565b60405161028291906113bb565b60405180910390f35b34801561029757600080fd5b506102b260048036038101906102ad919061161e565b6106d5565b6040516102c395949392919061166c565b60405180910390f35b3480156102d857600080fd5b506102e16107c0565b6040516102ee919061126c565b60405180910390f35b610311600480360381019061030c919061161e565b610852565b005b34801561031f57600080fd5b5061033a60048036038101906103359190611336565b610b23565b6040516103479190611391565b60405180910390f35b34801561035c57600080fd5b5061037760048036038101906103729190611336565b610b9a565b6040516103849190611391565b60405180910390f35b34801561039957600080fd5b506103b460048036038101906103af91906116c6565b610bbd565b6040516103c191906113bb565b60405180910390f35b3480156103d657600080fd5b506103df610c44565b6040516103ec91906113bb565b60405180910390f35b60606003805461040490611735565b80601f016020809104026020016040519081016040528092919081815260200182805461043090611735565b801561047d5780601f106104525761010080835404028352916020019161047d565b820191906000526020600020905b81548152906001019060200180831161046057829003601f168201915b5050505050905090565b600080610492610c4a565b905061049f818585610c52565b600191505092915050565b6000600254905090565b600082511180156104c55750600081115b6104ce57600080fd5b600560008154809291906104e190611795565b91905055506040518060a0016040528060055481526020018381526020018281526020013373ffffffffffffffffffffffffffffffffffffffff16815260200160001515815250600660006005548152602001908152602001600020600082015181600001556020820151816001019080519060200190610563929190611130565b506040820151816002015560608201518160030160006101000a81548173ffffffffffffffffffffffffffffffffffffffff021916908373ffffffffffffffffffffffffffffffffffffffff16021790555060808201518160030160146101000a81548160ff0219169083151502179055509050507fa6d43c5b2f390b2351d8dac24036317084104f245e1310c08a970669eafe2f0f600554838333600060405161061295949392919061166c565b60405180910390a15050565b600080610629610c4a565b9050610636858285610e1b565b610641858585610ea7565b60019150509392505050565b60006012905090565b600080610661610c4a565b90506106828185856106738589610bbd565b61067d91906117dd565b610c52565b600191505092915050565b60008060008373ffffffffffffffffffffffffffffffffffffffff1673ffffffffffffffffffffffffffffffffffffffff168152602001908152602001600020549050919050565b60066020528060005260406000206000915090508060000154908060010180546106fe90611735565b80601f016020809104026020016040519081016040528092919081815260200182805461072a90611735565b80156107775780601f1061074c57610100808354040283529160200191610777565b820191906000526020600020905b81548152906001019060200180831161075a57829003601f168201915b5050505050908060020154908060030160009054906101000a900473ffffffffffffffffffffffffffffffffffffffff16908060030160149054906101000a900460ff16905085565b6060600480546107cf90611735565b80601f01602080910402602001604051908101604052809291908181526020018280546107fb90611735565b80156108485780601f1061081d57610100808354040283529160200191610848565b820191906000526020600020905b81548152906001019060200180831161082b57829003601f168201915b5050505050905090565b6000600660008381526020019081526020016000206040518060a00160405290816000820154815260200160018201805461088c90611735565b80601f01602080910402602001604051908101604052809291908181526020018280546108b890611735565b80156109055780601f106108da57610100808354040283529160200191610905565b820191906000526020600020905b8154815290600101906020018083116108e857829003601f168201915b50505050508152602001600282015481526020016003820160009054906101000a900473ffffffffffffffffffffffffffffffffffffffff1673ffffffffffffffffffffffffffffffffffffffff1673ffffffffffffffffffffffffffffffffffffffff1681526020016003820160149054906101000a900460ff1615151515815250509050600081606001519050600082600001511180156109ae5750600554826000015111155b6109b757600080fd5b81604001516109c53361068d565b10156109d057600080fd5b8160800151156109df57600080fd5b3373ffffffffffffffffffffffffffffffffffffffff168173ffffffffffffffffffffffffffffffffffffffff1603610a1757600080fd5b33826060019073ffffffffffffffffffffffffffffffffffffffff16908173ffffffffffffffffffffffffffffffffffffffff168152505060018260800190151590811515815250508160066000858152602001908152602001600020600082015181600001556020820151816001019080519060200190610a9a929190611130565b506040820151816002015560608201518160030160006101000a81548173ffffffffffffffffffffffffffffffffffffffff021916908373ffffffffffffffffffffffffffffffffffffffff16021790555060808201518160030160146101000a81548160ff021916908315150217905550905050610b1d818360400151610b9a565b50505050565b600080610b2e610c4a565b90506000610b3c8286610bbd565b905083811015610b81576040517f08c379a0000000000000000000000000000000000000000000000000000000008152600401610b78906118a5565b60405180910390fd5b610b8e8286868403610c52565b60019250505092915050565b600080610ba5610c4a565b9050610bb2818585610ea7565b600191505092915050565b6000600160008473ffffffffffffffffffffffffffffffffffffffff1673ffffffffffffffffffffffffffffffffffffffff16815260200190815260200160002060008373ffffffffffffffffffffffffffffffffffffffff1673ffffffffffffffffffffffffffffffffffffffff16815260200190815260200160002054905092915050565b60055481565b600033905090565b600073ffffffffffffffffffffffffffffffffffffffff168373ffffffffffffffffffffffffffffffffffffffff1603610cc1576040517f08c379a0000000000000000000000000000000000000000000000000000000008152600401610cb890611937565b60405180910390fd5b600073ffffffffffffffffffffffffffffffffffffffff168273ffffffffffffffffffffffffffffffffffffffff1603610d30576040517f08c379a0000000000000000000000000000000000000000000000000000000008152600401610d27906119c9565b60405180910390fd5b80600160008573ffffffffffffffffffffffffffffffffffffffff1673ffffffffffffffffffffffffffffffffffffffff16815260200190815260200160002060008473ffffffffffffffffffffffffffffffffffffffff1673ffffffffffffffffffffffffffffffffffffffff168152602001908152602001600020819055508173ffffffffffffffffffffffffffffffffffffffff168373ffffffffffffffffffffffffffffffffffffffff167f8c5be1e5ebec7d5bd14f71427d1e84f3dd0314c0f7b2291e5b200ac8c7c3b92583604051610e0e91906113bb565b60405180910390a3505050565b6000610e278484610bbd565b90507fffffffffffffffffffffffffffffffffffffffffffffffffffffffffffffffff8114610ea15781811015610e93576040517f08c379a0000000000000000000000000000000000000000000000000000000008152600401610e8a90611a35565b60405180910390fd5b610ea08484848403610c52565b5b50505050565b600073ffffffffffffffffffffffffffffffffffffffff168373ffffffffffffffffffffffffffffffffffffffff1603610f16576040517f08c379a0000000000000000000000000000000000000000000000000000000008152600401610f0d90611ac7565b60405180910390fd5b600073ffffffffffffffffffffffffffffffffffffffff168273ffffffffffffffffffffffffffffffffffffffff1603610f85576040517f08c379a0000000000000000000000000000000000000000000000000000000008152600401610f7c90611b59565b60405180910390fd5b610f90838383611126565b60008060008573ffffffffffffffffffffffffffffffffffffffff1673ffffffffffffffffffffffffffffffffffffffff16815260200190815260200160002054905081811015611016576040517f08c379a000000000000000000000000000000000000000000000000000000000815260040161100d90611beb565b60405180910390fd5b8181036000808673ffffffffffffffffffffffffffffffffffffffff1673ffffffffffffffffffffffffffffffffffffffff16815260200190815260200160002081905550816000808573ffffffffffffffffffffffffffffffffffffffff1673ffffffffffffffffffffffffffffffffffffffff16815260200190815260200160002060008282546110a991906117dd565b925050819055508273ffffffffffffffffffffffffffffffffffffffff168473ffffffffffffffffffffffffffffffffffffffff167fddf252ad1be2c89b69c2b068fc378daa952ba7f163c4a11628f55a4df523b3ef8460405161110d91906113bb565b60405180910390a361112084848461112b565b50505050565b505050565b505050565b82805461113c90611735565b90600052602060002090601f01602090048101928261115e57600085556111a5565b82601f1061117757805160ff19168380011785556111a5565b828001600101855582156111a5579182015b828111156111a4578251825591602001919060010190611189565b5b5090506111b291906111b6565b5090565b5b808211156111cf5760008160009055506001016111b7565b5090565b600081519050919050565b600082825260208201905092915050565b60005b8381101561120d5780820151818401526020810190506111f2565b8381111561121c576000848401525b50505050565b6000601f19601f8301169050919050565b600061123e826111d3565b61124881856111de565b93506112588185602086016111ef565b61126181611222565b840191505092915050565b600060208201905081810360008301526112868184611233565b905092915050565b6000604051905090565b600080fd5b600080fd5b600073ffffffffffffffffffffffffffffffffffffffff82169050919050565b60006112cd826112a2565b9050919050565b6112dd816112c2565b81146112e857600080fd5b50565b6000813590506112fa816112d4565b92915050565b6000819050919050565b61131381611300565b811461131e57600080fd5b50565b6000813590506113308161130a565b92915050565b6000806040838503121561134d5761134c611298565b5b600061135b858286016112eb565b925050602061136c85828601611321565b9150509250929050565b60008115159050919050565b61138b81611376565b82525050565b60006020820190506113a66000830184611382565b92915050565b6113b581611300565b82525050565b60006020820190506113d060008301846113ac565b92915050565b600080fd5b600080fd5b7f4e487b7100000000000000000000000000000000000000000000000000000000600052604160045260246000fd5b61141882611222565b810181811067ffffffffffffffff82111715611437576114366113e0565b5b80604052505050565b600061144a61128e565b9050611456828261140f565b919050565b600067ffffffffffffffff821115611476576114756113e0565b5b61147f82611222565b9050602081019050919050565b82818337600083830152505050565b60006114ae6114a98461145b565b611440565b9050828152602081018484840111156114ca576114c96113db565b5b6114d584828561148c565b509392505050565b600082601f8301126114f2576114f16113d6565b5b813561150284826020860161149b565b91505092915050565b6000806040838503121561152257611521611298565b5b600083013567ffffffffffffffff8111156115405761153f61129d565b5b61154c858286016114dd565b925050602061155d85828601611321565b9150509250929050565b6000806000606084860312156115805761157f611298565b5b600061158e868287016112eb565b935050602061159f868287016112eb565b92505060406115b086828701611321565b9150509250925092565b600060ff82169050919050565b6115d0816115ba565b82525050565b60006020820190506115eb60008301846115c7565b92915050565b60006020828403121561160757611606611298565b5b6000611615848285016112eb565b91505092915050565b60006020828403121561163457611633611298565b5b600061164284828501611321565b91505092915050565b6000611656826112a2565b9050919050565b6116668161164b565b82525050565b600060a08201905061168160008301886113ac565b81810360208301526116938187611233565b90506116a260408301866113ac565b6116af606083018561165d565b6116bc6080830184611382565b9695505050505050565b600080604083850312156116dd576116dc611298565b5b60006116eb858286016112eb565b92505060206116fc858286016112eb565b9150509250929050565b7f4e487b7100000000000000000000000000000000000000000000000000000000600052602260045260246000fd5b6000600282049050600182168061174d57607f821691505b6020821081036117605761175f611706565b5b50919050565b7f4e487b7100000000000000000000000000000000000000000000000000000000600052601160045260246000fd5b60006117a082611300565b91507fffffffffffffffffffffffffffffffffffffffffffffffffffffffffffffffff82036117d2576117d1611766565b5b600182019050919050565b60006117e882611300565b91506117f383611300565b9250827fffffffffffffffffffffffffffffffffffffffffffffffffffffffffffffffff0382111561182857611827611766565b5b828201905092915050565b7f45524332303a2064656372656173656420616c6c6f77616e63652062656c6f7760008201527f207a65726f000000000000000000000000000000000000000000000000000000602082015250565b600061188f6025836111de565b915061189a82611833565b604082019050919050565b600060208201905081810360008301526118be81611882565b9050919050565b7f45524332303a20617070726f76652066726f6d20746865207a65726f2061646460008201527f7265737300000000000000000000000000000000000000000000000000000000602082015250565b60006119216024836111de565b915061192c826118c5565b604082019050919050565b6000602082019050818103600083015261195081611914565b9050919050565b7f45524332303a20617070726f766520746f20746865207a65726f20616464726560008201527f7373000000000000000000000000000000000000000000000000000000000000602082015250565b60006119b36022836111de565b91506119be82611957565b604082019050919050565b600060208201905081810360008301526119e2816119a6565b9050919050565b7f45524332303a20696e73756666696369656e7420616c6c6f77616e6365000000600082015250565b6000611a1f601d836111de565b9150611a2a826119e9565b602082019050919050565b60006020820190508181036000830152611a4e81611a12565b9050919050565b7f45524332303a207472616e736665722066726f6d20746865207a65726f20616460008201527f6472657373000000000000000000000000000000000000000000000000000000602082015250565b6000611ab16025836111de565b9150611abc82611a55565b604082019050919050565b60006020820190508181036000830152611ae081611aa4565b9050919050565b7f45524332303a207472616e7366657220746f20746865207a65726f206164647260008201527f6573730000000000000000000000000000000000000000000000000000000000602082015250565b6000611b436023836111de565b9150611b4e82611ae7565b604082019050919050565b60006020820190508181036000830152611b7281611b36565b9050919050565b7f45524332303a207472616e7366657220616d6f756e742065786365656473206260008201527f616c616e63650000000000000000000000000000000000000000000000000000602082015250565b6000611bd56026836111de565b9150611be082611b79565b604082019050919050565b60006020820190508181036000830152611c0481611bc8565b905091905056fea2646970667358221220903ab3a474d95649035ddb890a321996c53d6713dd95c21a87129e9d5608db9764736f6c634300080d0033",
  "immutableReferences": {},
  "source": "pragma solidity ^0.8.0;\r\n// SPDX-License-Identifier: MIT\r\nimport \"@openzeppelin/contracts/token/ERC20/ERC20.sol\";\r\n\r\ncontract Marketplace is ERC20 {\r\n   //string public name;\r\n    uint public productCount = 0;\r\n    mapping(uint => Product) public products;\r\n    \r\n    struct Product {\r\n        uint id;\r\n        string name;\r\n        uint price;\r\n        address payable owner;\r\n        bool purchased;\r\n    }\r\n\r\n\r\n    constructor() ERC20(\"Rinnegan\", \"Rin\"){\r\n        _mint(0xbAF8395cE964b37F0a2aB9ECa162287F985398E2, 1000000000000000000000);\r\n        //name = \"Baby's Essentials\";\r\n         //token = TokenContract();\r\n    }\r\n    \r\n    event CreatedProduct(\r\n        uint id,\r\n        string name,\r\n        uint price,\r\n        address payable owner,\r\n        bool purchased\r\n    );\r\n\r\n    event PurchasedProduct(\r\n        uint id,\r\n        string name,\r\n        uint price,\r\n        address payable owner,\r\n        bool purchased\r\n    );\r\n    \r\n    function Method_Product_Creation(string memory prod_name, uint prod_price) public {\r\n        require(bytes(prod_name).length > 0 && prod_price > 0);\r\n        productCount ++;\r\n        products[productCount] = Product(productCount, prod_name, prod_price, payable(msg.sender), false);\r\n        emit CreatedProduct(productCount, prod_name, prod_price, payable(msg.sender), false);\r\n    }\r\n\r\n    function Method_Product_Purchase(uint p_id) public payable {\r\n        Product memory tmp_product = products[p_id];\r\n        address payable _seller = tmp_product.owner;\r\n        require(tmp_product.id > 0 && tmp_product.id <= productCount);\r\n        require(balanceOf(msg.sender) >= tmp_product.price);\r\n        require(!tmp_product.purchased);\r\n        require(_seller != msg.sender);\r\n        tmp_product.owner = payable(msg.sender);\r\n        tmp_product.purchased = true;\r\n        products[p_id] = tmp_product;\r\n        //_seller.transfer(msg.value);\r\n        transfer(address(_seller), tmp_product.price);\r\n        //_transfer(msg.sender, _seller, msg.value);\r\n        //address(payable(_seller)).transfer(msg.value);\r\n        //emit PurchasedProduct(productCount, tmp_product.name, tmp_product.price, payable(msg.sender), true);\r\n    }\r\n}",
  "sourcePath": "/Users/whiskey/backup2/src/contracts/Marketplace.sol",
  "compiler": {
    "name": "solc",
    "version": "0.8.13+commit.abaa5c0e.Emscripten.clang"
  },
  "schemaVersion": "3.4.7",
  "updatedAt": "2022-05-08T16:12:26.809Z",
  "networkType": "ethereum",
  "devdoc": {
    "kind": "dev",
    "methods": {
      "allowance(address,address)": {
        "details": "See {IERC20-allowance}."
      },
      "approve(address,uint256)": {
        "details": "See {IERC20-approve}. NOTE: If `amount` is the maximum `uint256`, the allowance is not updated on `transferFrom`. This is semantically equivalent to an infinite approval. Requirements: - `spender` cannot be the zero address."
      },
      "balanceOf(address)": {
        "details": "See {IERC20-balanceOf}."
      },
      "decimals()": {
        "details": "Returns the number of decimals used to get its user representation. For example, if `decimals` equals `2`, a balance of `505` tokens should be displayed to a user as `5.05` (`505 / 10 ** 2`). Tokens usually opt for a value of 18, imitating the relationship between Ether and Wei. This is the value {ERC20} uses, unless this function is overridden; NOTE: This information is only used for _display_ purposes: it in no way affects any of the arithmetic of the contract, including {IERC20-balanceOf} and {IERC20-transfer}."
      },
      "decreaseAllowance(address,uint256)": {
        "details": "Atomically decreases the allowance granted to `spender` by the caller. This is an alternative to {approve} that can be used as a mitigation for problems described in {IERC20-approve}. Emits an {Approval} event indicating the updated allowance. Requirements: - `spender` cannot be the zero address. - `spender` must have allowance for the caller of at least `subtractedValue`."
      },
      "increaseAllowance(address,uint256)": {
        "details": "Atomically increases the allowance granted to `spender` by the caller. This is an alternative to {approve} that can be used as a mitigation for problems described in {IERC20-approve}. Emits an {Approval} event indicating the updated allowance. Requirements: - `spender` cannot be the zero address."
      },
      "name()": {
        "details": "Returns the name of the token."
      },
      "symbol()": {
        "details": "Returns the symbol of the token, usually a shorter version of the name."
      },
      "totalSupply()": {
        "details": "See {IERC20-totalSupply}."
      },
      "transfer(address,uint256)": {
        "details": "See {IERC20-transfer}. Requirements: - `to` cannot be the zero address. - the caller must have a balance of at least `amount`."
      },
      "transferFrom(address,address,uint256)": {
        "details": "See {IERC20-transferFrom}. Emits an {Approval} event indicating the updated allowance. This is not required by the EIP. See the note at the beginning of {ERC20}. NOTE: Does not update the allowance if the current allowance is the maximum `uint256`. Requirements: - `from` and `to` cannot be the zero address. - `from` must have a balance of at least `amount`. - the caller must have allowance for ``from``'s tokens of at least `amount`."
      }
    },
    "version": 1
  },
  "userdoc": {
    "kind": "user",
    "methods": {},
    "version": 1
  }
}